:0400000065EF01F0B7
:10000800F2A20DD0F292162A1650060AD8B4166A31
:10001800156A836A83B002D0179001D01780F2A4C2
:100028000AD0D59EF29AF294DB0ED66E0D0ED76EDC
:0A003800F28A830ED56E26D911005E
:100042000D6A086A0050D8B4000C04180A6E0ABE81
:100052000D1E0B6A04AE02D0041E042A00AE02D0AA
:10006200001E002A005004100A6E0ABE1FD004505F
:10007200085E003600340836045008260036060EA4
:100082000C6E00340836045000B0085E00A008264A
:1000920000360C2EF6D700A008260BB015D00DAEF8
:1000A200000C001E002A081E082A000C04AE09D00B
:1000B20000BE04D00050086E006AF1D7006A002A20
:1000C200000C001E0B2AD3D7082A0450085CD8A4BF
:0E00D200E6D7086A002A00AEE2D7FF0C120043
:1000E0001550000A03E1020E836E37D0800E000A1D
:1000F000006E800E1518005C10E2800E030A006E80
:10010000800E1518005C09E383CF00F000360090E4
:100110000036009000C083FF20D01550040A07E18C
:1001200083CF00F00032009E00C083FF16D0800E07
:10013000040A006E800E1518005C0FE2800E070A9C
:10014000006E800E1518005C08E383CF00F00032CB
:10015000009E0032009E00C083FF152A1550080A39
:06016000D8B4156A12007C
:10016600800E000A006E800E1518005C0FE2800EED
:100176001518006E800E080A005C08E283CF00F0B6
:100186000036009000C083FF152A15D0800E070A9E
:10019600006E800E1518005C0EE2800E1518006EBB
:1001A600800E0F0A005C07E283CF00F00032009E4B
:1001B60000C083FF152A1550000A04E015500F0AE7
:0E01C60001E004D0010E156E010E836E1200D2
:1001D400000E15BEFF0E006E000E001802E1FF0EA9
:0E01E4001518D8B4156A15C083FF152A12002D
:1001F2008350FF0AD8B4836A020E046E15C000F061
:100202001FDF08C000F00050000A08E183CF00F0B1
:10021200003600900050010F836E15D08304036EE8
:10022200046A000E045A03C000F004C001F0013257
:100232000032019E01BC018E01AE03D002E3004AEE
:10024200012A00C083FF800E030A006E800E15187B
:0C025200005C02E2156A01D0152A1200BF
:10025E00FF0EC16EFF0E936E816A956A836AF00E71
:10026E00F26EF40EF16E030ED56EDB0ED66E0B0E25
:0E027E00D76EF28AD58E156A166A1790120096
:10028C000BD01CD083701AD0AEDF18D066DF16D01E
:10029C009BDF14D01FDF12D01650000AF2E016506C
:1002AC00010AF0E01650020AEFE01650030AEEE0E5
:0E02BC001650040AEDE01650050AECE01200A0
:0602CA00C9DFFFD7FFD7DA
:020000040030CA
:0E000000000C1F1EFF8381FF0FC00FE00F409A
:00000001FF
